{
  "contractName": "Ducats",
  "abi": [
    {
      "inputs": [
        {
          "internalType": "uint256",
          "name": "maximum",
          "type": "uint256"
        }
      ],
      "stateMutability": "nonpayable",
      "type": "constructor"
    },
    {
      "anonymous": false,
      "inputs": [
        {
          "indexed": true,
          "internalType": "address",
          "name": "owner",
          "type": "address"
        },
        {
          "indexed": true,
          "internalType": "address",
          "name": "spender",
          "type": "address"
        },
        {
          "indexed": false,
          "internalType": "uint256",
          "name": "value",
          "type": "uint256"
        }
      ],
      "name": "Approval",
      "type": "event"
    },
    {
      "anonymous": false,
      "inputs": [
        {
          "indexed": true,
          "internalType": "address",
          "name": "previousOwner",
          "type": "address"
        },
        {
          "indexed": true,
          "internalType": "address",
          "name": "newOwner",
          "type": "address"
        }
      ],
      "name": "OwnershipTransferred",
      "type": "event"
    },
    {
      "anonymous": false,
      "inputs": [
        {
          "indexed": true,
          "internalType": "address",
          "name": "from",
          "type": "address"
        },
        {
          "indexed": true,
          "internalType": "address",
          "name": "to",
          "type": "address"
        },
        {
          "indexed": false,
          "internalType": "uint256",
          "name": "value",
          "type": "uint256"
        }
      ],
      "name": "Transfer",
      "type": "event"
    },
    {
      "inputs": [
        {
          "internalType": "address",
          "name": "owner",
          "type": "address"
        },
        {
          "internalType": "address",
          "name": "spender",
          "type": "address"
        }
      ],
      "name": "allowance",
      "outputs": [
        {
          "internalType": "uint256",
          "name": "",
          "type": "uint256"
        }
      ],
      "stateMutability": "view",
      "type": "function"
    },
    {
      "inputs": [
        {
          "internalType": "address",
          "name": "spender",
          "type": "address"
        },
        {
          "internalType": "uint256",
          "name": "amount",
          "type": "uint256"
        }
      ],
      "name": "approve",
      "outputs": [
        {
          "internalType": "bool",
          "name": "",
          "type": "bool"
        }
      ],
      "stateMutability": "nonpayable",
      "type": "function"
    },
    {
      "inputs": [
        {
          "internalType": "address",
          "name": "account",
          "type": "address"
        }
      ],
      "name": "balanceOf",
      "outputs": [
        {
          "internalType": "uint256",
          "name": "",
          "type": "uint256"
        }
      ],
      "stateMutability": "view",
      "type": "function"
    },
    {
      "inputs": [],
      "name": "decimals",
      "outputs": [
        {
          "internalType": "uint8",
          "name": "",
          "type": "uint8"
        }
      ],
      "stateMutability": "view",
      "type": "function"
    },
    {
      "inputs": [
        {
          "internalType": "address",
          "name": "spender",
          "type": "address"
        },
        {
          "internalType": "uint256",
          "name": "subtractedValue",
          "type": "uint256"
        }
      ],
      "name": "decreaseAllowance",
      "outputs": [
        {
          "internalType": "bool",
          "name": "",
          "type": "bool"
        }
      ],
      "stateMutability": "nonpayable",
      "type": "function"
    },
    {
      "inputs": [
        {
          "internalType": "address",
          "name": "spender",
          "type": "address"
        },
        {
          "internalType": "uint256",
          "name": "addedValue",
          "type": "uint256"
        }
      ],
      "name": "increaseAllowance",
      "outputs": [
        {
          "internalType": "bool",
          "name": "",
          "type": "bool"
        }
      ],
      "stateMutability": "nonpayable",
      "type": "function"
    },
    {
      "inputs": [],
      "name": "name",
      "outputs": [
        {
          "internalType": "string",
          "name": "",
          "type": "string"
        }
      ],
      "stateMutability": "view",
      "type": "function"
    },
    {
      "inputs": [],
      "name": "owner",
      "outputs": [
        {
          "internalType": "address",
          "name": "",
          "type": "address"
        }
      ],
      "stateMutability": "view",
      "type": "function"
    },
    {
      "inputs": [],
      "name": "renounceOwnership",
      "outputs": [],
      "stateMutability": "nonpayable",
      "type": "function"
    },
    {
      "inputs": [],
      "name": "symbol",
      "outputs": [
        {
          "internalType": "string",
          "name": "",
          "type": "string"
        }
      ],
      "stateMutability": "view",
      "type": "function"
    },
    {
      "inputs": [],
      "name": "totalSupply",
      "outputs": [
        {
          "internalType": "uint256",
          "name": "",
          "type": "uint256"
        }
      ],
      "stateMutability": "view",
      "type": "function"
    },
    {
      "inputs": [
        {
          "internalType": "address",
          "name": "from",
          "type": "address"
        },
        {
          "internalType": "address",
          "name": "to",
          "type": "address"
        },
        {
          "internalType": "uint256",
          "name": "amount",
          "type": "uint256"
        }
      ],
      "name": "transferFrom",
      "outputs": [
        {
          "internalType": "bool",
          "name": "",
          "type": "bool"
        }
      ],
      "stateMutability": "nonpayable",
      "type": "function"
    },
    {
      "inputs": [
        {
          "internalType": "address",
          "name": "newOwner",
          "type": "address"
        }
      ],
      "name": "transferOwnership",
      "outputs": [],
      "stateMutability": "nonpayable",
      "type": "function"
    },
    {
      "inputs": [
        {
          "internalType": "uint256",
          "name": "amount",
          "type": "uint256"
        }
      ],
      "name": "buy",
      "outputs": [],
      "stateMutability": "nonpayable",
      "type": "function"
    },
    {
      "inputs": [
        {
          "internalType": "address",
          "name": "to",
          "type": "address"
        },
        {
          "internalType": "uint256",
          "name": "amount",
          "type": "uint256"
        }
      ],
      "name": "transfer",
      "outputs": [
        {
          "internalType": "bool",
          "name": "",
          "type": "bool"
        }
      ],
      "stateMutability": "nonpayable",
      "type": "function"
    },
    {
      "inputs": [
        {
          "internalType": "uint256",
          "name": "amount",
          "type": "uint256"
        }
      ],
      "name": "setFee",
      "outputs": [],
      "stateMutability": "nonpayable",
      "type": "function"
    },
    {
      "inputs": [],
      "name": "getFee",
      "outputs": [
        {
          "internalType": "uint256",
          "name": "",
          "type": "uint256"
        }
      ],
      "stateMutability": "view",
      "type": "function"
    }
  ],
  "bytecode": "0x60806040523480156200001157600080fd5b5060405162002132380380620021328339818101604052810190620000379190620002cb565b6040518060400160405280600681526020017f44756361747300000000000000000000000000000000000000000000000000008152506040518060400160405280600381526020017f44554300000000000000000000000000000000000000000000000000000000008152508160039080519060200190620000bb929190620001db565b508060049080519060200190620000d4929190620001db565b505050620000f7620000eb6200010d60201b60201c565b6200011560201b60201c565b80600781905550600a6006819055505062000361565b600033905090565b6000600560009054906101000a900473ffffffffffffffffffffffffffffffffffffffff16905081600560006101000a81548173ffffffffffffffffffffffffffffffffffffffff021916908373ffffffffffffffffffffffffffffffffffffffff1602179055508173ffffffffffffffffffffffffffffffffffffffff168173ffffffffffffffffffffffffffffffffffffffff167f8be0079c531659141344cd1fd0a4f28419497f9722a3daafe3b4186f6b6457e060405160405180910390a35050565b828054620001e9906200032c565b90600052602060002090601f0160209004810192826200020d576000855562000259565b82601f106200022857805160ff191683800117855562000259565b8280016001018555821562000259579182015b82811115620002585782518255916020019190600101906200023b565b5b5090506200026891906200026c565b5090565b5b80821115620002875760008160009055506001016200026d565b5090565b600080fd5b6000819050919050565b620002a58162000290565b8114620002b157600080fd5b50565b600081519050620002c5816200029a565b92915050565b600060208284031215620002e457620002e36200028b565b5b6000620002f484828501620002b4565b91505092915050565b7f4e487b7100000000000000000000000000000000000000000000000000000000600052602260045260246000fd5b600060028204905060018216806200034557607f821691505b6020821081036200035b576200035a620002fd565b5b50919050565b611dc180620003716000396000f3fe608060405234801561001057600080fd5b506004361061010b5760003560e01c8063715018a6116100a2578063a9059cbb11610071578063a9059cbb146102bc578063ced72f87146102ec578063d96a094a1461030a578063dd62ed3e14610326578063f2fde38b146103565761010b565b8063715018a6146102465780638da5cb5b1461025057806395d89b411461026e578063a457c2d71461028c5761010b565b8063313ce567116100de578063313ce567146101ac57806339509351146101ca57806369fe0e2d146101fa57806370a08231146102165761010b565b806306fdde0314610110578063095ea7b31461012e57806318160ddd1461015e57806323b872dd1461017c575b600080fd5b610118610372565b60405161012591906112cb565b60405180910390f35b61014860048036038101906101439190611386565b610404565b60405161015591906113e1565b60405180910390f35b610166610427565b604051610173919061140b565b60405180910390f35b61019660048036038101906101919190611426565b610431565b6040516101a391906113e1565b60405180910390f35b6101b4610460565b6040516101c19190611495565b60405180910390f35b6101e460048036038101906101df9190611386565b610469565b6040516101f191906113e1565b60405180910390f35b610214600480360381019061020f91906114b0565b610513565b005b610230600480360381019061022b91906114dd565b6105ea565b60405161023d919061140b565b60405180910390f35b61024e610632565b005b6102586106ba565b6040516102659190611519565b60405180910390f35b6102766106e4565b60405161028391906112cb565b60405180910390f35b6102a660048036038101906102a19190611386565b610776565b6040516102b391906113e1565b60405180910390f35b6102d660048036038101906102d19190611386565b610860565b6040516102e391906113e1565b60405180910390f35b6102f4610908565b604051610301919061140b565b60405180910390f35b610324600480360381019061031f91906114b0565b610912565b005b610340600480360381019061033b9190611534565b61097d565b60405161034d919061140b565b60405180910390f35b610370600480360381019061036b91906114dd565b610a04565b005b606060038054610381906115a3565b80601f01602080910402602001604051908101604052809291908181526020018280546103ad906115a3565b80156103fa5780601f106103cf576101008083540402835291602001916103fa565b820191906000526020600020905b8154815290600101906020018083116103dd57829003601f168201915b5050505050905090565b60008061040f610afb565b905061041c818585610b03565b600191505092915050565b6000600254905090565b60008061043c610afb565b9050610449858285610ccc565b610454858585610d58565b60019150509392505050565b60006012905090565b600080610474610afb565b9050610508818585600160008673ffffffffffffffffffffffffffffffffffffffff1673ffffffffffffffffffffffffffffffffffffffff16815260200190815260200160002060008973ffffffffffffffffffffffffffffffffffffffff1673ffffffffffffffffffffffffffffffffffffffff168152602001908152602001600020546105039190611603565b610b03565b600191505092915050565b61051b610afb565b73ffffffffffffffffffffffffffffffffffffffff166105396106ba565b73ffffffffffffffffffffffffffffffffffffffff161461058f576040517f08c379a0000000000000000000000000000000000000000000000000000000008152600401610586906116a5565b60405180910390fd5b600081101580156105a1575060648111155b6105e0576040517f08c379a00000000000000000000000000000000000000000000000000000000081526004016105d790611711565b60405180910390fd5b8060068190555050565b60008060008373ffffffffffffffffffffffffffffffffffffffff1673ffffffffffffffffffffffffffffffffffffffff168152602001908152602001600020549050919050565b61063a610afb565b73ffffffffffffffffffffffffffffffffffffffff166106586106ba565b73ffffffffffffffffffffffffffffffffffffffff16146106ae576040517f08c379a00000000000000000000000000000000000000000000000000000000081526004016106a5906116a5565b60405180910390fd5b6106b86000610fd7565b565b6000600560009054906101000a900473ffffffffffffffffffffffffffffffffffffffff16905090565b6060600480546106f3906115a3565b80601f016020809104026020016040519081016040528092919081815260200182805461071f906115a3565b801561076c5780601f106107415761010080835404028352916020019161076c565b820191906000526020600020905b81548152906001019060200180831161074f57829003601f168201915b5050505050905090565b600080610781610afb565b90506000600160008373ffffffffffffffffffffffffffffffffffffffff1673ffffffffffffffffffffffffffffffffffffffff16815260200190815260200160002060008673ffffffffffffffffffffffffffffffffffffffff1673ffffffffffffffffffffffffffffffffffffffff16815260200190815260200160002054905083811015610847576040517f08c379a000000000000000000000000000000000000000000000000000000000815260040161083e906117a3565b60405180910390fd5b6108548286868403610b03565b60019250505092915050565b6000806108786006548461109d90919063ffffffff16565b905061088d81846110b390919063ffffffff16565b610896336105ea565b10156108d7576040517f08c379a00000000000000000000000000000000000000000000000000000000081526004016108ce90611835565b60405180910390fd5b6108e2338585610d58565b6108f7816008546110b390919063ffffffff16565b600881905550600191505092915050565b6000600654905090565b60075461092f82610921610427565b6110b390919063ffffffff16565b1115610970576040517f08c379a0000000000000000000000000000000000000000000000000000000008152600401610967906118c7565b60405180910390fd5b61097a33826110c9565b50565b6000600160008473ffffffffffffffffffffffffffffffffffffffff1673ffffffffffffffffffffffffffffffffffffffff16815260200190815260200160002060008373ffffffffffffffffffffffffffffffffffffffff1673ffffffffffffffffffffffffffffffffffffffff16815260200190815260200160002054905092915050565b610a0c610afb565b73ffffffffffffffffffffffffffffffffffffffff16610a2a6106ba565b73ffffffffffffffffffffffffffffffffffffffff1614610a80576040517f08c379a0000000000000000000000000000000000000000000000000000000008152600401610a77906116a5565b60405180910390fd5b600073ffffffffffffffffffffffffffffffffffffffff168173ffffffffffffffffffffffffffffffffffffffff1603610aef576040517f08c379a0000000000000000000000000000000000000000000000000000000008152600401610ae690611959565b60405180910390fd5b610af881610fd7565b50565b600033905090565b600073ffffffffffffffffffffffffffffffffffffffff168373ffffffffffffffffffffffffffffffffffffffff1603610b72576040517f08c379a0000000000000000000000000000000000000000000000000000000008152600401610b69906119eb565b60405180910390fd5b600073ffffffffffffffffffffffffffffffffffffffff168273ffffffffffffffffffffffffffffffffffffffff1603610be1576040517f08c379a0000000000000000000000000000000000000000000000000000000008152600401610bd890611a7d565b60405180910390fd5b80600160008573ffffffffffffffffffffffffffffffffffffffff1673ffffffffffffffffffffffffffffffffffffffff16815260200190815260200160002060008473ffffffffffffffffffffffffffffffffffffffff1673ffffffffffffffffffffffffffffffffffffffff168152602001908152602001600020819055508173ffffffffffffffffffffffffffffffffffffffff168373ffffffffffffffffffffffffffffffffffffffff167f8c5be1e5ebec7d5bd14f71427d1e84f3dd0314c0f7b2291e5b200ac8c7c3b92583604051610cbf919061140b565b60405180910390a3505050565b6000610cd8848461097d565b90507fffffffffffffffffffffffffffffffffffffffffffffffffffffffffffffffff8114610d525781811015610d44576040517f08c379a0000000000000000000000000000000000000000000000000000000008152600401610d3b90611ae9565b60405180910390fd5b610d518484848403610b03565b5b50505050565b600073ffffffffffffffffffffffffffffffffffffffff168373ffffffffffffffffffffffffffffffffffffffff1603610dc7576040517f08c379a0000000000000000000000000000000000000000000000000000000008152600401610dbe90611b7b565b60405180910390fd5b600073ffffffffffffffffffffffffffffffffffffffff168273ffffffffffffffffffffffffffffffffffffffff1603610e36576040517f08c379a0000000000000000000000000000000000000000000000000000000008152600401610e2d90611c0d565b60405180910390fd5b610e41838383611228565b60008060008573ffffffffffffffffffffffffffffffffffffffff1673ffffffffffffffffffffffffffffffffffffffff16815260200190815260200160002054905081811015610ec7576040517f08c379a0000000000000000000000000000000000000000000000000000000008152600401610ebe90611c9f565b60405180910390fd5b8181036000808673ffffffffffffffffffffffffffffffffffffffff1673ffffffffffffffffffffffffffffffffffffffff16815260200190815260200160002081905550816000808573ffffffffffffffffffffffffffffffffffffffff1673ffffffffffffffffffffffffffffffffffffffff1681526020019081526020016000206000828254610f5a9190611603565b925050819055508273ffffffffffffffffffffffffffffffffffffffff168473ffffffffffffffffffffffffffffffffffffffff167fddf252ad1be2c89b69c2b068fc378daa952ba7f163c4a11628f55a4df523b3ef84604051610fbe919061140b565b60405180910390a3610fd184848461122d565b50505050565b6000600560009054906101000a900473ffffffffffffffffffffffffffffffffffffffff16905081600560006101000a81548173ffffffffffffffffffffffffffffffffffffffff021916908373ffffffffffffffffffffffffffffffffffffffff1602179055508173ffffffffffffffffffffffffffffffffffffffff168173ffffffffffffffffffffffffffffffffffffffff167f8be0079c531659141344cd1fd0a4f28419497f9722a3daafe3b4186f6b6457e060405160405180910390a35050565b600081836110ab9190611cee565b905092915050565b600081836110c19190611603565b905092915050565b600073ffffffffffffffffffffffffffffffffffffffff168273ffffffffffffffffffffffffffffffffffffffff1603611138576040517f08c379a000000000000000000000000000000000000000000000000000000000815260040161112f90611d6b565b60405180910390fd5b61114460008383611228565b80600260008282546111569190611603565b92505081905550806000808473ffffffffffffffffffffffffffffffffffffffff1673ffffffffffffffffffffffffffffffffffffffff16815260200190815260200160002060008282546111ab9190611603565b925050819055508173ffffffffffffffffffffffffffffffffffffffff16600073ffffffffffffffffffffffffffffffffffffffff167fddf252ad1be2c89b69c2b068fc378daa952ba7f163c4a11628f55a4df523b3ef83604051611210919061140b565b60405180910390a36112246000838361122d565b5050565b505050565b505050565b600081519050919050565b600082825260208201905092915050565b60005b8381101561126c578082015181840152602081019050611251565b8381111561127b576000848401525b50505050565b6000601f19601f8301169050919050565b600061129d82611232565b6112a7818561123d565b93506112b781856020860161124e565b6112c081611281565b840191505092915050565b600060208201905081810360008301526112e58184611292565b905092915050565b600080fd5b600073ffffffffffffffffffffffffffffffffffffffff82169050919050565b600061131d826112f2565b9050919050565b61132d81611312565b811461133857600080fd5b50565b60008135905061134a81611324565b92915050565b6000819050919050565b61136381611350565b811461136e57600080fd5b50565b6000813590506113808161135a565b92915050565b6000806040838503121561139d5761139c6112ed565b5b60006113ab8582860161133b565b92505060206113bc85828601611371565b9150509250929050565b60008115159050919050565b6113db816113c6565b82525050565b60006020820190506113f660008301846113d2565b92915050565b61140581611350565b82525050565b600060208201905061142060008301846113fc565b92915050565b60008060006060848603121561143f5761143e6112ed565b5b600061144d8682870161133b565b935050602061145e8682870161133b565b925050604061146f86828701611371565b9150509250925092565b600060ff82169050919050565b61148f81611479565b82525050565b60006020820190506114aa6000830184611486565b92915050565b6000602082840312156114c6576114c56112ed565b5b60006114d484828501611371565b91505092915050565b6000602082840312156114f3576114f26112ed565b5b60006115018482850161133b565b91505092915050565b61151381611312565b82525050565b600060208201905061152e600083018461150a565b92915050565b6000806040838503121561154b5761154a6112ed565b5b60006115598582860161133b565b925050602061156a8582860161133b565b9150509250929050565b7f4e487b7100000000000000000000000000000000000000000000000000000000600052602260045260246000fd5b600060028204905060018216806115bb57607f821691505b6020821081036115ce576115cd611574565b5b50919050565b7f4e487b7100000000000000000000000000000000000000000000000000000000600052601160045260246000fd5b600061160e82611350565b915061161983611350565b9250827fffffffffffffffffffffffffffffffffffffffffffffffffffffffffffffffff0382111561164e5761164d6115d4565b5b828201905092915050565b7f4f776e61626c653a2063616c6c6572206973206e6f7420746865206f776e6572600082015250565b600061168f60208361123d565b915061169a82611659565b602082019050919050565b600060208201905081810360008301526116be81611682565b9050919050565b7f54686520666565206d75737420626520612070657263656e746167652e000000600082015250565b60006116fb601d8361123d565b9150611706826116c5565b602082019050919050565b6000602082019050818103600083015261172a816116ee565b9050919050565b7f45524332303a2064656372656173656420616c6c6f77616e63652062656c6f7760008201527f207a65726f000000000000000000000000000000000000000000000000000000602082015250565b600061178d60258361123d565b915061179882611731565b604082019050919050565b600060208201905081810360008301526117bc81611780565b9050919050565b7f596f7520646f6e2774206861766520656e6f75676874206d6f6e657920746f2060008201527f70617920746865206665652e0000000000000000000000000000000000000000602082015250565b600061181f602c8361123d565b915061182a826117c3565b604082019050919050565b6000602082019050818103600083015261184e81611812565b9050919050565b7f436f6e747261742063616e6e6f74206d696e74206d6f726520636f696e73206460008201527f756520746f206d6178696d756d20737570706c792e0000000000000000000000602082015250565b60006118b160358361123d565b91506118bc82611855565b604082019050919050565b600060208201905081810360008301526118e0816118a4565b9050919050565b7f4f776e61626c653a206e6577206f776e657220697320746865207a65726f206160008201527f6464726573730000000000000000000000000000000000000000000000000000602082015250565b600061194360268361123d565b915061194e826118e7565b604082019050919050565b6000602082019050818103600083015261197281611936565b9050919050565b7f45524332303a20617070726f76652066726f6d20746865207a65726f2061646460008201527f7265737300000000000000000000000000000000000000000000000000000000602082015250565b60006119d560248361123d565b91506119e082611979565b604082019050919050565b60006020820190508181036000830152611a04816119c8565b9050919050565b7f45524332303a20617070726f766520746f20746865207a65726f20616464726560008201527f7373000000000000000000000000000000000000000000000000000000000000602082015250565b6000611a6760228361123d565b9150611a7282611a0b565b604082019050919050565b60006020820190508181036000830152611a9681611a5a565b9050919050565b7f45524332303a20696e73756666696369656e7420616c6c6f77616e6365000000600082015250565b6000611ad3601d8361123d565b9150611ade82611a9d565b602082019050919050565b60006020820190508181036000830152611b0281611ac6565b9050919050565b7f45524332303a207472616e736665722066726f6d20746865207a65726f20616460008201527f6472657373000000000000000000000000000000000000000000000000000000602082015250565b6000611b6560258361123d565b9150611b7082611b09565b604082019050919050565b60006020820190508181036000830152611b9481611b58565b9050919050565b7f45524332303a207472616e7366657220746f20746865207a65726f206164647260008201527f6573730000000000000000000000000000000000000000000000000000000000602082015250565b6000611bf760238361123d565b9150611c0282611b9b565b604082019050919050565b60006020820190508181036000830152611c2681611bea565b9050919050565b7f45524332303a207472616e7366657220616d6f756e742065786365656473206260008201527f616c616e63650000000000000000000000000000000000000000000000000000602082015250565b6000611c8960268361123d565b9150611c9482611c2d565b604082019050919050565b60006020820190508181036000830152611cb881611c7c565b9050919050565b7f4e487b7100000000000000000000000000000000000000000000000000000000600052601260045260246000fd5b6000611cf982611350565b9150611d0483611350565b925082611d1457611d13611cbf565b5b828204905092915050565b7f45524332303a206d696e7420746f20746865207a65726f206164647265737300600082015250565b6000611d55601f8361123d565b9150611d6082611d1f565b602082019050919050565b60006020820190508181036000830152611d8481611d48565b905091905056fea2646970667358221220e41b42f3c0e69c93499843c5685124019e4faf40126a3c92e1b54fc3e104558164736f6c634300080d0033",
  "immutableReferences": {},
  "source": "// SPDX-License-Identifier: MIT\r\npragma solidity ^0.8.6;\r\n\r\nimport \"@openzeppelin/contracts/token/ERC20/ERC20.sol\";\r\nimport \"@openzeppelin/contracts/access/Ownable.sol\";\r\nimport \"@openzeppelin/contracts/utils/math/SafeMath.sol\";\r\n\r\ncontract Ducats is ERC20, Ownable {\r\n    uint256 fee;\r\n    uint256 maximumSupply;\r\n    uint private ducatsFromContract;\r\n\r\n    using SafeMath for uint256;\r\n\r\n    constructor(uint256 maximum) ERC20(\"Ducats\", \"DUC\") {\r\n        maximumSupply = maximum;\r\n        fee = 10;\r\n    }\r\n\r\n    function buy(uint256 amount) public {\r\n        require(totalSupply().add(amount) <= maximumSupply, \"Contrat cannot mint more coins due to maximum supply.\");\r\n        _mint(msg.sender, amount);\r\n    }\r\n\r\n    function transfer(address to, uint256 amount) public virtual override returns(bool) {\r\n        uint tax = amount.div(fee);\r\n        require(balanceOf(msg.sender) >= amount.add(tax), \"You don't have enought money to pay the fee.\");\r\n\r\n        _transfer(msg.sender, to, amount);\r\n        ducatsFromContract = ducatsFromContract.add(tax);\r\n\r\n        return true;\r\n    }\r\n\r\n    function setFee(uint amount) public onlyOwner {\r\n        require(amount >= 0 && amount <= 100, \"The fee must be a percentage.\");\r\n        fee = amount;\r\n    }\r\n\r\n    function getFee() public view returns(uint) {\r\n        return fee;\r\n    }\r\n}",
  "sourcePath": "C:\\Users\\DaviB\\OneDrive\\Desktop\\ducats\\contracts\\Ducats.sol",
  "compiler": {
    "name": "solc",
    "version": "0.8.13+commit.abaa5c0e.Emscripten.clang"
  },
  "schemaVersion": "3.4.7",
  "updatedAt": "2022-04-25T17:37:47.512Z",
  "devdoc": {
    "kind": "dev",
    "methods": {
      "allowance(address,address)": {
        "details": "See {IERC20-allowance}."
      },
      "approve(address,uint256)": {
        "details": "See {IERC20-approve}. NOTE: If `amount` is the maximum `uint256`, the allowance is not updated on `transferFrom`. This is semantically equivalent to an infinite approval. Requirements: - `spender` cannot be the zero address."
      },
      "balanceOf(address)": {
        "details": "See {IERC20-balanceOf}."
      },
      "decimals()": {
        "details": "Returns the number of decimals used to get its user representation. For example, if `decimals` equals `2`, a balance of `505` tokens should be displayed to a user as `5.05` (`505 / 10 ** 2`). Tokens usually opt for a value of 18, imitating the relationship between Ether and Wei. This is the value {ERC20} uses, unless this function is overridden; NOTE: This information is only used for _display_ purposes: it in no way affects any of the arithmetic of the contract, including {IERC20-balanceOf} and {IERC20-transfer}."
      },
      "decreaseAllowance(address,uint256)": {
        "details": "Atomically decreases the allowance granted to `spender` by the caller. This is an alternative to {approve} that can be used as a mitigation for problems described in {IERC20-approve}. Emits an {Approval} event indicating the updated allowance. Requirements: - `spender` cannot be the zero address. - `spender` must have allowance for the caller of at least `subtractedValue`."
      },
      "increaseAllowance(address,uint256)": {
        "details": "Atomically increases the allowance granted to `spender` by the caller. This is an alternative to {approve} that can be used as a mitigation for problems described in {IERC20-approve}. Emits an {Approval} event indicating the updated allowance. Requirements: - `spender` cannot be the zero address."
      },
      "name()": {
        "details": "Returns the name of the token."
      },
      "owner()": {
        "details": "Returns the address of the current owner."
      },
      "renounceOwnership()": {
        "details": "Leaves the contract without owner. It will not be possible to call `onlyOwner` functions anymore. Can only be called by the current owner. NOTE: Renouncing ownership will leave the contract without an owner, thereby removing any functionality that is only available to the owner."
      },
      "symbol()": {
        "details": "Returns the symbol of the token, usually a shorter version of the name."
      },
      "totalSupply()": {
        "details": "See {IERC20-totalSupply}."
      },
      "transfer(address,uint256)": {
        "details": "See {IERC20-transfer}. Requirements: - `to` cannot be the zero address. - the caller must have a balance of at least `amount`."
      },
      "transferFrom(address,address,uint256)": {
        "details": "See {IERC20-transferFrom}. Emits an {Approval} event indicating the updated allowance. This is not required by the EIP. See the note at the beginning of {ERC20}. NOTE: Does not update the allowance if the current allowance is the maximum `uint256`. Requirements: - `from` and `to` cannot be the zero address. - `from` must have a balance of at least `amount`. - the caller must have allowance for ``from``'s tokens of at least `amount`."
      },
      "transferOwnership(address)": {
        "details": "Transfers ownership of the contract to a new account (`newOwner`). Can only be called by the current owner."
      }
    },
    "version": 1
  },
  "userdoc": {
    "kind": "user",
    "methods": {},
    "version": 1
  }
}