{
  "contractName": "Ducats",
  "abi": [
    {
      "inputs": [
        {
          "internalType": "uint256",
          "name": "maximum",
          "type": "uint256"
        }
      ],
      "stateMutability": "nonpayable",
      "type": "constructor"
    },
    {
      "anonymous": false,
      "inputs": [
        {
          "indexed": true,
          "internalType": "address",
          "name": "owner",
          "type": "address"
        },
        {
          "indexed": true,
          "internalType": "address",
          "name": "spender",
          "type": "address"
        },
        {
          "indexed": false,
          "internalType": "uint256",
          "name": "value",
          "type": "uint256"
        }
      ],
      "name": "Approval",
      "type": "event"
    },
    {
      "anonymous": false,
      "inputs": [
        {
          "indexed": true,
          "internalType": "address",
          "name": "previousOwner",
          "type": "address"
        },
        {
          "indexed": true,
          "internalType": "address",
          "name": "newOwner",
          "type": "address"
        }
      ],
      "name": "OwnershipTransferred",
      "type": "event"
    },
    {
      "anonymous": false,
      "inputs": [
        {
          "indexed": true,
          "internalType": "address",
          "name": "from",
          "type": "address"
        },
        {
          "indexed": true,
          "internalType": "address",
          "name": "to",
          "type": "address"
        },
        {
          "indexed": false,
          "internalType": "uint256",
          "name": "value",
          "type": "uint256"
        }
      ],
      "name": "Transfer",
      "type": "event"
    },
    {
      "inputs": [
        {
          "internalType": "address",
          "name": "owner",
          "type": "address"
        },
        {
          "internalType": "address",
          "name": "spender",
          "type": "address"
        }
      ],
      "name": "allowance",
      "outputs": [
        {
          "internalType": "uint256",
          "name": "",
          "type": "uint256"
        }
      ],
      "stateMutability": "view",
      "type": "function"
    },
    {
      "inputs": [
        {
          "internalType": "address",
          "name": "spender",
          "type": "address"
        },
        {
          "internalType": "uint256",
          "name": "amount",
          "type": "uint256"
        }
      ],
      "name": "approve",
      "outputs": [
        {
          "internalType": "bool",
          "name": "",
          "type": "bool"
        }
      ],
      "stateMutability": "nonpayable",
      "type": "function"
    },
    {
      "inputs": [
        {
          "internalType": "address",
          "name": "account",
          "type": "address"
        }
      ],
      "name": "balanceOf",
      "outputs": [
        {
          "internalType": "uint256",
          "name": "",
          "type": "uint256"
        }
      ],
      "stateMutability": "view",
      "type": "function"
    },
    {
      "inputs": [
        {
          "internalType": "bool",
          "name": "pause",
          "type": "bool"
        }
      ],
      "name": "changePause",
      "outputs": [],
      "stateMutability": "nonpayable",
      "type": "function"
    },
    {
      "inputs": [],
      "name": "decimals",
      "outputs": [
        {
          "internalType": "uint8",
          "name": "",
          "type": "uint8"
        }
      ],
      "stateMutability": "view",
      "type": "function"
    },
    {
      "inputs": [
        {
          "internalType": "address",
          "name": "spender",
          "type": "address"
        },
        {
          "internalType": "uint256",
          "name": "subtractedValue",
          "type": "uint256"
        }
      ],
      "name": "decreaseAllowance",
      "outputs": [
        {
          "internalType": "bool",
          "name": "",
          "type": "bool"
        }
      ],
      "stateMutability": "nonpayable",
      "type": "function"
    },
    {
      "inputs": [
        {
          "internalType": "address",
          "name": "spender",
          "type": "address"
        },
        {
          "internalType": "uint256",
          "name": "addedValue",
          "type": "uint256"
        }
      ],
      "name": "increaseAllowance",
      "outputs": [
        {
          "internalType": "bool",
          "name": "",
          "type": "bool"
        }
      ],
      "stateMutability": "nonpayable",
      "type": "function"
    },
    {
      "inputs": [],
      "name": "name",
      "outputs": [
        {
          "internalType": "string",
          "name": "",
          "type": "string"
        }
      ],
      "stateMutability": "view",
      "type": "function"
    },
    {
      "inputs": [],
      "name": "owner",
      "outputs": [
        {
          "internalType": "address",
          "name": "",
          "type": "address"
        }
      ],
      "stateMutability": "view",
      "type": "function"
    },
    {
      "inputs": [],
      "name": "renounceOwnership",
      "outputs": [],
      "stateMutability": "nonpayable",
      "type": "function"
    },
    {
      "inputs": [
        {
          "internalType": "address",
          "name": "target",
          "type": "address"
        }
      ],
      "name": "setVip",
      "outputs": [],
      "stateMutability": "nonpayable",
      "type": "function"
    },
    {
      "inputs": [],
      "name": "symbol",
      "outputs": [
        {
          "internalType": "string",
          "name": "",
          "type": "string"
        }
      ],
      "stateMutability": "view",
      "type": "function"
    },
    {
      "inputs": [],
      "name": "totalSupply",
      "outputs": [
        {
          "internalType": "uint256",
          "name": "",
          "type": "uint256"
        }
      ],
      "stateMutability": "view",
      "type": "function"
    },
    {
      "inputs": [
        {
          "internalType": "address",
          "name": "from",
          "type": "address"
        },
        {
          "internalType": "address",
          "name": "to",
          "type": "address"
        },
        {
          "internalType": "uint256",
          "name": "amount",
          "type": "uint256"
        }
      ],
      "name": "transferFrom",
      "outputs": [
        {
          "internalType": "bool",
          "name": "",
          "type": "bool"
        }
      ],
      "stateMutability": "nonpayable",
      "type": "function"
    },
    {
      "inputs": [
        {
          "internalType": "address",
          "name": "newOwner",
          "type": "address"
        }
      ],
      "name": "transferOwnership",
      "outputs": [],
      "stateMutability": "nonpayable",
      "type": "function"
    },
    {
      "inputs": [
        {
          "internalType": "uint256",
          "name": "amount",
          "type": "uint256"
        }
      ],
      "name": "buy",
      "outputs": [],
      "stateMutability": "nonpayable",
      "type": "function"
    },
    {
      "inputs": [
        {
          "internalType": "address",
          "name": "to",
          "type": "address"
        },
        {
          "internalType": "uint256",
          "name": "amount",
          "type": "uint256"
        }
      ],
      "name": "transfer",
      "outputs": [
        {
          "internalType": "bool",
          "name": "",
          "type": "bool"
        }
      ],
      "stateMutability": "nonpayable",
      "type": "function"
    },
    {
      "inputs": [],
      "name": "collectTaxes",
      "outputs": [],
      "stateMutability": "nonpayable",
      "type": "function"
    },
    {
      "inputs": [
        {
          "internalType": "uint256",
          "name": "amount",
          "type": "uint256"
        }
      ],
      "name": "setFee",
      "outputs": [],
      "stateMutability": "nonpayable",
      "type": "function"
    },
    {
      "inputs": [],
      "name": "getFee",
      "outputs": [
        {
          "internalType": "uint256",
          "name": "",
          "type": "uint256"
        }
      ],
      "stateMutability": "view",
      "type": "function"
    },
    {
      "inputs": [
        {
          "internalType": "uint256",
          "name": "amount",
          "type": "uint256"
        }
      ],
      "name": "setMaximum",
      "outputs": [],
      "stateMutability": "nonpayable",
      "type": "function"
    },
    {
      "inputs": [],
      "name": "getMaximum",
      "outputs": [
        {
          "internalType": "uint256",
          "name": "",
          "type": "uint256"
        }
      ],
      "stateMutability": "view",
      "type": "function"
    }
  ],
  "bytecode": "0x60806040523480156200001157600080fd5b506040516200265a3803806200265a83398181016040528101906200003791906200033e565b6040518060400160405280600681526020017f44756361747300000000000000000000000000000000000000000000000000008152506040518060400160405280600381526020017f44554300000000000000000000000000000000000000000000000000000000008152508160039080519060200190620000bb9291906200024e565b508060049080519060200190620000d49291906200024e565b505050620000f7620000eb6200018060201b60201c565b6200018860201b60201c565b6001600660003373ffffffffffffffffffffffffffffffffffffffff1673ffffffffffffffffffffffffffffffffffffffff16815260200190815260200160002060006101000a81548160ff0219169083151502179055506000600760006101000a81548160ff02191690831515021790555080600981905550600a60088190555050620003d4565b600033905090565b6000600560009054906101000a900473ffffffffffffffffffffffffffffffffffffffff16905081600560006101000a81548173ffffffffffffffffffffffffffffffffffffffff021916908373ffffffffffffffffffffffffffffffffffffffff1602179055508173ffffffffffffffffffffffffffffffffffffffff168173ffffffffffffffffffffffffffffffffffffffff167f8be0079c531659141344cd1fd0a4f28419497f9722a3daafe3b4186f6b6457e060405160405180910390a35050565b8280546200025c906200039f565b90600052602060002090601f016020900481019282620002805760008555620002cc565b82601f106200029b57805160ff1916838001178555620002cc565b82800160010185558215620002cc579182015b82811115620002cb578251825591602001919060010190620002ae565b5b509050620002db9190620002df565b5090565b5b80821115620002fa576000816000905550600101620002e0565b5090565b600080fd5b6000819050919050565b620003188162000303565b81146200032457600080fd5b50565b60008151905062000338816200030d565b92915050565b600060208284031215620003575762000356620002fe565b5b6000620003678482850162000327565b91505092915050565b7f4e487b7100000000000000000000000000000000000000000000000000000000600052602260045260246000fd5b60006002820490506001821680620003b857607f821691505b602082108103620003ce57620003cd62000370565b5b50919050565b61227680620003e46000396000f3fe608060405234801561001057600080fd5b50600436106101425760003560e01c806370a08231116100b8578063a457c2d71161007c578063a457c2d71461033f578063a9059cbb1461036f578063ced72f871461039f578063d96a094a146103bd578063dd62ed3e146103d9578063f2fde38b1461040957610142565b806370a08231146102ab578063715018a6146102db5780638da5cb5b146102e557806395d89b41146103035780639ee68fd51461032157610142565b806323b872dd1161010a57806323b872dd146101d95780632538618314610209578063313ce5671461022557806339509351146102435780635d4fead31461027357806369fe0e2d1461028f57610142565b806301b613a51461014757806306fdde0314610151578063095ea7b31461016f5780630b6c90821461019f57806318160ddd146101bb575b600080fd5b61014f610425565b005b6101596104b6565b6040516101669190611661565b60405180910390f35b6101896004803603810190610184919061171c565b610548565b6040516101969190611777565b60405180910390f35b6101b960048036038101906101b49190611792565b61056b565b005b6101c36105c6565b6040516101d091906117ce565b60405180910390f35b6101f360048036038101906101ee91906117e9565b6105d0565b6040516102009190611777565b60405180910390f35b610223600480360381019061021e919061183c565b6105ff565b005b61022d610685565b60405161023a9190611885565b60405180910390f35b61025d6004803603810190610258919061171c565b61068e565b60405161026a9190611777565b60405180910390f35b61028d600480360381019061028891906118cc565b610738565b005b6102a960048036038101906102a4919061183c565b6107d1565b005b6102c560048036038101906102c09190611792565b6108a8565b6040516102d291906117ce565b60405180910390f35b6102e36108f0565b005b6102ed610978565b6040516102fa9190611908565b60405180910390f35b61030b6109a2565b6040516103189190611661565b60405180910390f35b610329610a34565b60405161033691906117ce565b60405180910390f35b6103596004803603810190610354919061171c565b610a3e565b6040516103669190611777565b60405180910390f35b6103896004803603810190610384919061171c565b610b28565b6040516103969190611777565b60405180910390f35b6103a7610c32565b6040516103b491906117ce565b60405180910390f35b6103d760048036038101906103d2919061183c565b610c3c565b005b6103f360048036038101906103ee9190611923565b610ca7565b60405161040091906117ce565b60405180910390f35b610423600480360381019061041e9190611792565b610d2e565b005b61042d610e25565b73ffffffffffffffffffffffffffffffffffffffff1661044b610978565b73ffffffffffffffffffffffffffffffffffffffff16146104a1576040517f08c379a0000000000000000000000000000000000000000000000000000000008152600401610498906119af565b60405180910390fd5b6104b430336104af306108a8565b610e2d565b565b6060600380546104c5906119fe565b80601f01602080910402602001604051908101604052809291908181526020018280546104f1906119fe565b801561053e5780601f106105135761010080835404028352916020019161053e565b820191906000526020600020905b81548152906001019060200180831161052157829003601f168201915b5050505050905090565b600080610553610e25565b90506105608185856110ac565b600191505092915050565b6001600660008373ffffffffffffffffffffffffffffffffffffffff1673ffffffffffffffffffffffffffffffffffffffff16815260200190815260200160002060006101000a81548160ff02191690831515021790555050565b6000600254905090565b6000806105db610e25565b90506105e8858285611275565b6105f3858585610e2d565b60019150509392505050565b610607610e25565b73ffffffffffffffffffffffffffffffffffffffff16610625610978565b73ffffffffffffffffffffffffffffffffffffffff161461067b576040517f08c379a0000000000000000000000000000000000000000000000000000000008152600401610672906119af565b60405180910390fd5b8060098190555050565b60006012905090565b600080610699610e25565b905061072d818585600160008673ffffffffffffffffffffffffffffffffffffffff1673ffffffffffffffffffffffffffffffffffffffff16815260200190815260200160002060008973ffffffffffffffffffffffffffffffffffffffff1673ffffffffffffffffffffffffffffffffffffffff168152602001908152602001600020546107289190611a5e565b6110ac565b600191505092915050565b610740610e25565b73ffffffffffffffffffffffffffffffffffffffff1661075e610978565b73ffffffffffffffffffffffffffffffffffffffff16146107b4576040517f08c379a00000000000000000000000000000000000000000000000000000000081526004016107ab906119af565b60405180910390fd5b80600760006101000a81548160ff02191690831515021790555050565b6107d9610e25565b73ffffffffffffffffffffffffffffffffffffffff166107f7610978565b73ffffffffffffffffffffffffffffffffffffffff161461084d576040517f08c379a0000000000000000000000000000000000000000000000000000000008152600401610844906119af565b60405180910390fd5b6000811015801561085f575060648111155b61089e576040517f08c379a000000000000000000000000000000000000000000000000000000000815260040161089590611b00565b60405180910390fd5b8060088190555050565b60008060008373ffffffffffffffffffffffffffffffffffffffff1673ffffffffffffffffffffffffffffffffffffffff168152602001908152602001600020549050919050565b6108f8610e25565b73ffffffffffffffffffffffffffffffffffffffff16610916610978565b73ffffffffffffffffffffffffffffffffffffffff161461096c576040517f08c379a0000000000000000000000000000000000000000000000000000000008152600401610963906119af565b60405180910390fd5b6109766000611301565b565b6000600560009054906101000a900473ffffffffffffffffffffffffffffffffffffffff16905090565b6060600480546109b1906119fe565b80601f01602080910402602001604051908101604052809291908181526020018280546109dd906119fe565b8015610a2a5780601f106109ff57610100808354040283529160200191610a2a565b820191906000526020600020905b815481529060010190602001808311610a0d57829003601f168201915b5050505050905090565b6000600954905090565b600080610a49610e25565b90506000600160008373ffffffffffffffffffffffffffffffffffffffff1673ffffffffffffffffffffffffffffffffffffffff16815260200190815260200160002060008673ffffffffffffffffffffffffffffffffffffffff1673ffffffffffffffffffffffffffffffffffffffff16815260200190815260200160002054905083811015610b0f576040517f08c379a0000000000000000000000000000000000000000000000000000000008152600401610b0690611b92565b60405180910390fd5b610b1c82868684036110ac565b60019250505092915050565b6000600760009054906101000a900460ff1615610b7a576040517f08c379a0000000000000000000000000000000000000000000000000000000008152600401610b7190611bfe565b60405180910390fd5b610b83336113c7565b610c1d576000610bb16064610ba38560085461141d90919063ffffffff16565b61143390919063ffffffff16565b9050610bc6818461144990919063ffffffff16565b610bcf336108a8565b1015610c10576040517f08c379a0000000000000000000000000000000000000000000000000000000008152600401610c0790611c90565b60405180910390fd5b610c1b333083610e2d565b505b610c28338484610e2d565b6001905092915050565b6000600854905090565b600954610c5982610c4b6105c6565b61144990919063ffffffff16565b1115610c9a576040517f08c379a0000000000000000000000000000000000000000000000000000000008152600401610c9190611d22565b60405180910390fd5b610ca4338261145f565b50565b6000600160008473ffffffffffffffffffffffffffffffffffffffff1673ffffffffffffffffffffffffffffffffffffffff16815260200190815260200160002060008373ffffffffffffffffffffffffffffffffffffffff1673ffffffffffffffffffffffffffffffffffffffff16815260200190815260200160002054905092915050565b610d36610e25565b73ffffffffffffffffffffffffffffffffffffffff16610d54610978565b73ffffffffffffffffffffffffffffffffffffffff1614610daa576040517f08c379a0000000000000000000000000000000000000000000000000000000008152600401610da1906119af565b60405180910390fd5b600073ffffffffffffffffffffffffffffffffffffffff168173ffffffffffffffffffffffffffffffffffffffff1603610e19576040517f08c379a0000000000000000000000000000000000000000000000000000000008152600401610e1090611db4565b60405180910390fd5b610e2281611301565b50565b600033905090565b600073ffffffffffffffffffffffffffffffffffffffff168373ffffffffffffffffffffffffffffffffffffffff1603610e9c576040517f08c379a0000000000000000000000000000000000000000000000000000000008152600401610e9390611e46565b60405180910390fd5b600073ffffffffffffffffffffffffffffffffffffffff168273ffffffffffffffffffffffffffffffffffffffff1603610f0b576040517f08c379a0000000000000000000000000000000000000000000000000000000008152600401610f0290611ed8565b60405180910390fd5b610f168383836115be565b60008060008573ffffffffffffffffffffffffffffffffffffffff1673ffffffffffffffffffffffffffffffffffffffff16815260200190815260200160002054905081811015610f9c576040517f08c379a0000000000000000000000000000000000000000000000000000000008152600401610f9390611f6a565b60405180910390fd5b8181036000808673ffffffffffffffffffffffffffffffffffffffff1673ffffffffffffffffffffffffffffffffffffffff16815260200190815260200160002081905550816000808573ffffffffffffffffffffffffffffffffffffffff1673ffffffffffffffffffffffffffffffffffffffff168152602001908152602001600020600082825461102f9190611a5e565b925050819055508273ffffffffffffffffffffffffffffffffffffffff168473ffffffffffffffffffffffffffffffffffffffff167fddf252ad1be2c89b69c2b068fc378daa952ba7f163c4a11628f55a4df523b3ef8460405161109391906117ce565b60405180910390a36110a68484846115c3565b50505050565b600073ffffffffffffffffffffffffffffffffffffffff168373ffffffffffffffffffffffffffffffffffffffff160361111b576040517f08c379a000000000000000000000000000000000000000000000000000000000815260040161111290611ffc565b60405180910390fd5b600073ffffffffffffffffffffffffffffffffffffffff168273ffffffffffffffffffffffffffffffffffffffff160361118a576040517f08c379a00000000000000000000000000000000000000000000000000000000081526004016111819061208e565b60405180910390fd5b80600160008573ffffffffffffffffffffffffffffffffffffffff1673ffffffffffffffffffffffffffffffffffffffff16815260200190815260200160002060008473ffffffffffffffffffffffffffffffffffffffff1673ffffffffffffffffffffffffffffffffffffffff168152602001908152602001600020819055508173ffffffffffffffffffffffffffffffffffffffff168373ffffffffffffffffffffffffffffffffffffffff167f8c5be1e5ebec7d5bd14f71427d1e84f3dd0314c0f7b2291e5b200ac8c7c3b9258360405161126891906117ce565b60405180910390a3505050565b60006112818484610ca7565b90507fffffffffffffffffffffffffffffffffffffffffffffffffffffffffffffffff81146112fb57818110156112ed576040517f08c379a00000000000000000000000000000000000000000000000000000000081526004016112e4906120fa565b60405180910390fd5b6112fa84848484036110ac565b5b50505050565b6000600560009054906101000a900473ffffffffffffffffffffffffffffffffffffffff16905081600560006101000a81548173ffffffffffffffffffffffffffffffffffffffff021916908373ffffffffffffffffffffffffffffffffffffffff1602179055508173ffffffffffffffffffffffffffffffffffffffff168173ffffffffffffffffffffffffffffffffffffffff167f8be0079c531659141344cd1fd0a4f28419497f9722a3daafe3b4186f6b6457e060405160405180910390a35050565b6000600660008373ffffffffffffffffffffffffffffffffffffffff1673ffffffffffffffffffffffffffffffffffffffff16815260200190815260200160002060009054906101000a900460ff169050919050565b6000818361142b919061211a565b905092915050565b6000818361144191906121a3565b905092915050565b600081836114579190611a5e565b905092915050565b600073ffffffffffffffffffffffffffffffffffffffff168273ffffffffffffffffffffffffffffffffffffffff16036114ce576040517f08c379a00000000000000000000000000000000000000000000000000000000081526004016114c590612220565b60405180910390fd5b6114da600083836115be565b80600260008282546114ec9190611a5e565b92505081905550806000808473ffffffffffffffffffffffffffffffffffffffff1673ffffffffffffffffffffffffffffffffffffffff16815260200190815260200160002060008282546115419190611a5e565b925050819055508173ffffffffffffffffffffffffffffffffffffffff16600073ffffffffffffffffffffffffffffffffffffffff167fddf252ad1be2c89b69c2b068fc378daa952ba7f163c4a11628f55a4df523b3ef836040516115a691906117ce565b60405180910390a36115ba600083836115c3565b5050565b505050565b505050565b600081519050919050565b600082825260208201905092915050565b60005b838110156116025780820151818401526020810190506115e7565b83811115611611576000848401525b50505050565b6000601f19601f8301169050919050565b6000611633826115c8565b61163d81856115d3565b935061164d8185602086016115e4565b61165681611617565b840191505092915050565b6000602082019050818103600083015261167b8184611628565b905092915050565b600080fd5b600073ffffffffffffffffffffffffffffffffffffffff82169050919050565b60006116b382611688565b9050919050565b6116c3816116a8565b81146116ce57600080fd5b50565b6000813590506116e0816116ba565b92915050565b6000819050919050565b6116f9816116e6565b811461170457600080fd5b50565b600081359050611716816116f0565b92915050565b6000806040838503121561173357611732611683565b5b6000611741858286016116d1565b925050602061175285828601611707565b9150509250929050565b60008115159050919050565b6117718161175c565b82525050565b600060208201905061178c6000830184611768565b92915050565b6000602082840312156117a8576117a7611683565b5b60006117b6848285016116d1565b91505092915050565b6117c8816116e6565b82525050565b60006020820190506117e360008301846117bf565b92915050565b60008060006060848603121561180257611801611683565b5b6000611810868287016116d1565b9350506020611821868287016116d1565b925050604061183286828701611707565b9150509250925092565b60006020828403121561185257611851611683565b5b600061186084828501611707565b91505092915050565b600060ff82169050919050565b61187f81611869565b82525050565b600060208201905061189a6000830184611876565b92915050565b6118a98161175c565b81146118b457600080fd5b50565b6000813590506118c6816118a0565b92915050565b6000602082840312156118e2576118e1611683565b5b60006118f0848285016118b7565b91505092915050565b611902816116a8565b82525050565b600060208201905061191d60008301846118f9565b92915050565b6000806040838503121561193a57611939611683565b5b6000611948858286016116d1565b9250506020611959858286016116d1565b9150509250929050565b7f4f776e61626c653a2063616c6c6572206973206e6f7420746865206f776e6572600082015250565b60006119996020836115d3565b91506119a482611963565b602082019050919050565b600060208201905081810360008301526119c88161198c565b9050919050565b7f4e487b7100000000000000000000000000000000000000000000000000000000600052602260045260246000fd5b60006002820490506001821680611a1657607f821691505b602082108103611a2957611a286119cf565b5b50919050565b7f4e487b7100000000000000000000000000000000000000000000000000000000600052601160045260246000fd5b6000611a69826116e6565b9150611a74836116e6565b9250827fffffffffffffffffffffffffffffffffffffffffffffffffffffffffffffffff03821115611aa957611aa8611a2f565b5b828201905092915050565b7f54686520666565206d75737420626520612070657263656e746167652e000000600082015250565b6000611aea601d836115d3565b9150611af582611ab4565b602082019050919050565b60006020820190508181036000830152611b1981611add565b9050919050565b7f45524332303a2064656372656173656420616c6c6f77616e63652062656c6f7760008201527f207a65726f000000000000000000000000000000000000000000000000000000602082015250565b6000611b7c6025836115d3565b9150611b8782611b20565b604082019050919050565b60006020820190508181036000830152611bab81611b6f565b9050919050565b7f546865207472616e73616374696f6e7320617265207061757365642e00000000600082015250565b6000611be8601c836115d3565b9150611bf382611bb2565b602082019050919050565b60006020820190508181036000830152611c1781611bdb565b9050919050565b7f596f7520646f6e2774206861766520656e6f75676874206d6f6e657920746f2060008201527f70617920746865206665652e0000000000000000000000000000000000000000602082015250565b6000611c7a602c836115d3565b9150611c8582611c1e565b604082019050919050565b60006020820190508181036000830152611ca981611c6d565b9050919050565b7f436f6e7472616374207265616368656420697473206d6178696d756d2073757060008201527f706c792c2063616e6e6f74206d696e74206d6f726520636f696e732e00000000602082015250565b6000611d0c603c836115d3565b9150611d1782611cb0565b604082019050919050565b60006020820190508181036000830152611d3b81611cff565b9050919050565b7f4f776e61626c653a206e6577206f776e657220697320746865207a65726f206160008201527f6464726573730000000000000000000000000000000000000000000000000000602082015250565b6000611d9e6026836115d3565b9150611da982611d42565b604082019050919050565b60006020820190508181036000830152611dcd81611d91565b9050919050565b7f45524332303a207472616e736665722066726f6d20746865207a65726f20616460008201527f6472657373000000000000000000000000000000000000000000000000000000602082015250565b6000611e306025836115d3565b9150611e3b82611dd4565b604082019050919050565b60006020820190508181036000830152611e5f81611e23565b9050919050565b7f45524332303a207472616e7366657220746f20746865207a65726f206164647260008201527f6573730000000000000000000000000000000000000000000000000000000000602082015250565b6000611ec26023836115d3565b9150611ecd82611e66565b604082019050919050565b60006020820190508181036000830152611ef181611eb5565b9050919050565b7f45524332303a207472616e7366657220616d6f756e742065786365656473206260008201527f616c616e63650000000000000000000000000000000000000000000000000000602082015250565b6000611f546026836115d3565b9150611f5f82611ef8565b604082019050919050565b60006020820190508181036000830152611f8381611f47565b9050919050565b7f45524332303a20617070726f76652066726f6d20746865207a65726f2061646460008201527f7265737300000000000000000000000000000000000000000000000000000000602082015250565b6000611fe66024836115d3565b9150611ff182611f8a565b604082019050919050565b6000602082019050818103600083015261201581611fd9565b9050919050565b7f45524332303a20617070726f766520746f20746865207a65726f20616464726560008201527f7373000000000000000000000000000000000000000000000000000000000000602082015250565b60006120786022836115d3565b91506120838261201c565b604082019050919050565b600060208201905081810360008301526120a78161206b565b9050919050565b7f45524332303a20696e73756666696369656e7420616c6c6f77616e6365000000600082015250565b60006120e4601d836115d3565b91506120ef826120ae565b602082019050919050565b60006020820190508181036000830152612113816120d7565b9050919050565b6000612125826116e6565b9150612130836116e6565b9250817fffffffffffffffffffffffffffffffffffffffffffffffffffffffffffffffff048311821515161561216957612168611a2f565b5b828202905092915050565b7f4e487b7100000000000000000000000000000000000000000000000000000000600052601260045260246000fd5b60006121ae826116e6565b91506121b9836116e6565b9250826121c9576121c8612174565b5b828204905092915050565b7f45524332303a206d696e7420746f20746865207a65726f206164647265737300600082015250565b600061220a601f836115d3565b9150612215826121d4565b602082019050919050565b60006020820190508181036000830152612239816121fd565b905091905056fea2646970667358221220acb94b41576a33f5329d787667d5cf40d3d4646142ceee75d77c1f029742c89764736f6c634300080d0033",
  "immutableReferences": {},
  "source": "// SPDX-License-Identifier: MIT\r\npragma solidity ^0.8.13;\r\n\r\nimport \"@openzeppelin/contracts/token/ERC20/ERC20.sol\";\r\nimport \"@openzeppelin/contracts/utils/math/SafeMath.sol\";\r\nimport \"./Vip.sol\";\r\nimport \"./Pausable.sol\";\r\n\r\ncontract Ducats is ERC20, Vip, Pausable {\r\n    uint256 private fee;\r\n    uint256 private maximumSupply;\r\n\r\n    using SafeMath for uint256;\r\n\r\n    constructor(uint256 maximum) ERC20(\"Ducats\", \"DUC\") {\r\n        maximumSupply = maximum;\r\n        fee = 10;\r\n    }\r\n\r\n    function buy(uint256 amount) public {\r\n        require(\r\n            totalSupply().add(amount) <= maximumSupply,\r\n            \"Contract reached its maximum supply, cannot mint more coins.\"\r\n        );\r\n        _mint(msg.sender, amount);\r\n    }\r\n\r\n    function transfer(address to, uint256 amount)\r\n        public\r\n        virtual\r\n        override\r\n        isPaused\r\n        returns (bool)\r\n    {\r\n        if (!_isVip(msg.sender)) {\r\n            uint256 tax = fee.mul(amount).div(100);\r\n\r\n            require(\r\n                balanceOf(msg.sender) >= amount.add(tax),\r\n                \"You don't have enought money to pay the fee.\"\r\n            );\r\n\r\n            _transfer(msg.sender, address(this), tax);\r\n        }\r\n\r\n        _transfer(msg.sender, to, amount);\r\n\r\n        return true;\r\n    }\r\n\r\n    function collectTaxes() public onlyOwner {\r\n        _transfer(address(this), msg.sender, balanceOf(address(this)));\r\n    }\r\n\r\n    function setFee(uint256 amount) public onlyOwner {\r\n        require(amount >= 0 && amount <= 100, \"The fee must be a percentage.\");\r\n        fee = amount;\r\n    }\r\n\r\n    function getFee() public view returns(uint256) {\r\n        return fee;\r\n    }\r\n\r\n    function setMaximum(uint256 amount) public onlyOwner {\r\n        maximumSupply = amount;\r\n    }\r\n\r\n    function getMaximum() public view returns(uint256) {\r\n        return maximumSupply;\r\n    }\r\n}\r\n",
  "sourcePath": "C:\\Users\\DaviB\\OneDrive\\Desktop\\ducats\\contracts\\Ducats.sol",
  "compiler": {
    "name": "solc",
    "version": "0.8.13+commit.abaa5c0e.Emscripten.clang"
  },
  "schemaVersion": "3.4.7",
  "updatedAt": "2022-04-27T16:08:17.026Z",
  "devdoc": {
    "kind": "dev",
    "methods": {
      "allowance(address,address)": {
        "details": "See {IERC20-allowance}."
      },
      "approve(address,uint256)": {
        "details": "See {IERC20-approve}. NOTE: If `amount` is the maximum `uint256`, the allowance is not updated on `transferFrom`. This is semantically equivalent to an infinite approval. Requirements: - `spender` cannot be the zero address."
      },
      "balanceOf(address)": {
        "details": "See {IERC20-balanceOf}."
      },
      "decimals()": {
        "details": "Returns the number of decimals used to get its user representation. For example, if `decimals` equals `2`, a balance of `505` tokens should be displayed to a user as `5.05` (`505 / 10 ** 2`). Tokens usually opt for a value of 18, imitating the relationship between Ether and Wei. This is the value {ERC20} uses, unless this function is overridden; NOTE: This information is only used for _display_ purposes: it in no way affects any of the arithmetic of the contract, including {IERC20-balanceOf} and {IERC20-transfer}."
      },
      "decreaseAllowance(address,uint256)": {
        "details": "Atomically decreases the allowance granted to `spender` by the caller. This is an alternative to {approve} that can be used as a mitigation for problems described in {IERC20-approve}. Emits an {Approval} event indicating the updated allowance. Requirements: - `spender` cannot be the zero address. - `spender` must have allowance for the caller of at least `subtractedValue`."
      },
      "increaseAllowance(address,uint256)": {
        "details": "Atomically increases the allowance granted to `spender` by the caller. This is an alternative to {approve} that can be used as a mitigation for problems described in {IERC20-approve}. Emits an {Approval} event indicating the updated allowance. Requirements: - `spender` cannot be the zero address."
      },
      "name()": {
        "details": "Returns the name of the token."
      },
      "owner()": {
        "details": "Returns the address of the current owner."
      },
      "renounceOwnership()": {
        "details": "Leaves the contract without owner. It will not be possible to call `onlyOwner` functions anymore. Can only be called by the current owner. NOTE: Renouncing ownership will leave the contract without an owner, thereby removing any functionality that is only available to the owner."
      },
      "symbol()": {
        "details": "Returns the symbol of the token, usually a shorter version of the name."
      },
      "totalSupply()": {
        "details": "See {IERC20-totalSupply}."
      },
      "transfer(address,uint256)": {
        "details": "See {IERC20-transfer}. Requirements: - `to` cannot be the zero address. - the caller must have a balance of at least `amount`."
      },
      "transferFrom(address,address,uint256)": {
        "details": "See {IERC20-transferFrom}. Emits an {Approval} event indicating the updated allowance. This is not required by the EIP. See the note at the beginning of {ERC20}. NOTE: Does not update the allowance if the current allowance is the maximum `uint256`. Requirements: - `from` and `to` cannot be the zero address. - `from` must have a balance of at least `amount`. - the caller must have allowance for ``from``'s tokens of at least `amount`."
      },
      "transferOwnership(address)": {
        "details": "Transfers ownership of the contract to a new account (`newOwner`). Can only be called by the current owner."
      }
    },
    "version": 1
  },
  "userdoc": {
    "kind": "user",
    "methods": {},
    "version": 1
  }
}