{
  "contractName": "Ducats",
  "abi": [
    {
      "inputs": [
        {
          "internalType": "uint256",
          "name": "maximumSupply",
          "type": "uint256"
        },
        {
          "internalType": "uint256",
          "name": "donationAmount",
          "type": "uint256"
        }
      ],
      "stateMutability": "nonpayable",
      "type": "constructor"
    },
    {
      "anonymous": false,
      "inputs": [
        {
          "indexed": true,
          "internalType": "address",
          "name": "owner",
          "type": "address"
        },
        {
          "indexed": true,
          "internalType": "address",
          "name": "spender",
          "type": "address"
        },
        {
          "indexed": false,
          "internalType": "uint256",
          "name": "value",
          "type": "uint256"
        }
      ],
      "name": "Approval",
      "type": "event"
    },
    {
      "anonymous": false,
      "inputs": [
        {
          "indexed": true,
          "internalType": "address",
          "name": "previousOwner",
          "type": "address"
        },
        {
          "indexed": true,
          "internalType": "address",
          "name": "newOwner",
          "type": "address"
        }
      ],
      "name": "OwnershipTransferred",
      "type": "event"
    },
    {
      "anonymous": false,
      "inputs": [
        {
          "indexed": true,
          "internalType": "address",
          "name": "from",
          "type": "address"
        },
        {
          "indexed": true,
          "internalType": "address",
          "name": "to",
          "type": "address"
        },
        {
          "indexed": false,
          "internalType": "uint256",
          "name": "value",
          "type": "uint256"
        }
      ],
      "name": "Transfer",
      "type": "event"
    },
    {
      "inputs": [
        {
          "internalType": "address",
          "name": "owner",
          "type": "address"
        },
        {
          "internalType": "address",
          "name": "spender",
          "type": "address"
        }
      ],
      "name": "allowance",
      "outputs": [
        {
          "internalType": "uint256",
          "name": "",
          "type": "uint256"
        }
      ],
      "stateMutability": "view",
      "type": "function"
    },
    {
      "inputs": [
        {
          "internalType": "address",
          "name": "spender",
          "type": "address"
        },
        {
          "internalType": "uint256",
          "name": "amount",
          "type": "uint256"
        }
      ],
      "name": "approve",
      "outputs": [
        {
          "internalType": "bool",
          "name": "",
          "type": "bool"
        }
      ],
      "stateMutability": "nonpayable",
      "type": "function"
    },
    {
      "inputs": [
        {
          "internalType": "address",
          "name": "account",
          "type": "address"
        }
      ],
      "name": "balanceOf",
      "outputs": [
        {
          "internalType": "uint256",
          "name": "",
          "type": "uint256"
        }
      ],
      "stateMutability": "view",
      "type": "function"
    },
    {
      "inputs": [
        {
          "internalType": "bool",
          "name": "pause",
          "type": "bool"
        }
      ],
      "name": "changePause",
      "outputs": [],
      "stateMutability": "nonpayable",
      "type": "function"
    },
    {
      "inputs": [],
      "name": "decimals",
      "outputs": [
        {
          "internalType": "uint8",
          "name": "",
          "type": "uint8"
        }
      ],
      "stateMutability": "view",
      "type": "function"
    },
    {
      "inputs": [
        {
          "internalType": "address",
          "name": "spender",
          "type": "address"
        },
        {
          "internalType": "uint256",
          "name": "subtractedValue",
          "type": "uint256"
        }
      ],
      "name": "decreaseAllowance",
      "outputs": [
        {
          "internalType": "bool",
          "name": "",
          "type": "bool"
        }
      ],
      "stateMutability": "nonpayable",
      "type": "function"
    },
    {
      "inputs": [
        {
          "internalType": "address",
          "name": "spender",
          "type": "address"
        },
        {
          "internalType": "uint256",
          "name": "addedValue",
          "type": "uint256"
        }
      ],
      "name": "increaseAllowance",
      "outputs": [
        {
          "internalType": "bool",
          "name": "",
          "type": "bool"
        }
      ],
      "stateMutability": "nonpayable",
      "type": "function"
    },
    {
      "inputs": [],
      "name": "name",
      "outputs": [
        {
          "internalType": "string",
          "name": "",
          "type": "string"
        }
      ],
      "stateMutability": "view",
      "type": "function"
    },
    {
      "inputs": [],
      "name": "owner",
      "outputs": [
        {
          "internalType": "address",
          "name": "",
          "type": "address"
        }
      ],
      "stateMutability": "view",
      "type": "function"
    },
    {
      "inputs": [],
      "name": "renounceOwnership",
      "outputs": [],
      "stateMutability": "nonpayable",
      "type": "function"
    },
    {
      "inputs": [
        {
          "internalType": "address",
          "name": "target",
          "type": "address"
        }
      ],
      "name": "setVip",
      "outputs": [],
      "stateMutability": "nonpayable",
      "type": "function"
    },
    {
      "inputs": [],
      "name": "symbol",
      "outputs": [
        {
          "internalType": "string",
          "name": "",
          "type": "string"
        }
      ],
      "stateMutability": "view",
      "type": "function"
    },
    {
      "inputs": [],
      "name": "totalSupply",
      "outputs": [
        {
          "internalType": "uint256",
          "name": "",
          "type": "uint256"
        }
      ],
      "stateMutability": "view",
      "type": "function"
    },
    {
      "inputs": [
        {
          "internalType": "address",
          "name": "from",
          "type": "address"
        },
        {
          "internalType": "address",
          "name": "to",
          "type": "address"
        },
        {
          "internalType": "uint256",
          "name": "amount",
          "type": "uint256"
        }
      ],
      "name": "transferFrom",
      "outputs": [
        {
          "internalType": "bool",
          "name": "",
          "type": "bool"
        }
      ],
      "stateMutability": "nonpayable",
      "type": "function"
    },
    {
      "inputs": [
        {
          "internalType": "address",
          "name": "newOwner",
          "type": "address"
        }
      ],
      "name": "transferOwnership",
      "outputs": [],
      "stateMutability": "nonpayable",
      "type": "function"
    },
    {
      "inputs": [
        {
          "internalType": "uint256",
          "name": "amount",
          "type": "uint256"
        }
      ],
      "name": "buy",
      "outputs": [],
      "stateMutability": "nonpayable",
      "type": "function"
    },
    {
      "inputs": [],
      "name": "donate",
      "outputs": [],
      "stateMutability": "nonpayable",
      "type": "function"
    },
    {
      "inputs": [
        {
          "internalType": "address",
          "name": "to",
          "type": "address"
        },
        {
          "internalType": "uint256",
          "name": "amount",
          "type": "uint256"
        }
      ],
      "name": "transfer",
      "outputs": [
        {
          "internalType": "bool",
          "name": "",
          "type": "bool"
        }
      ],
      "stateMutability": "nonpayable",
      "type": "function"
    },
    {
      "inputs": [],
      "name": "collectTaxes",
      "outputs": [],
      "stateMutability": "nonpayable",
      "type": "function"
    },
    {
      "inputs": [
        {
          "internalType": "uint256",
          "name": "amount",
          "type": "uint256"
        }
      ],
      "name": "setFee",
      "outputs": [],
      "stateMutability": "nonpayable",
      "type": "function"
    },
    {
      "inputs": [],
      "name": "getFee",
      "outputs": [
        {
          "internalType": "uint256",
          "name": "",
          "type": "uint256"
        }
      ],
      "stateMutability": "view",
      "type": "function"
    },
    {
      "inputs": [
        {
          "internalType": "uint256",
          "name": "amount",
          "type": "uint256"
        }
      ],
      "name": "setMaximum",
      "outputs": [],
      "stateMutability": "nonpayable",
      "type": "function"
    },
    {
      "inputs": [],
      "name": "getMaximum",
      "outputs": [
        {
          "internalType": "uint256",
          "name": "",
          "type": "uint256"
        }
      ],
      "stateMutability": "view",
      "type": "function"
    }
  ],
  "bytecode": "0x608060405262278d00600b553480156200001857600080fd5b50604051620028b4380380620028b483398181016040528101906200003e91906200034d565b6040518060400160405280600681526020017f44756361747300000000000000000000000000000000000000000000000000008152506040518060400160405280600381526020017f44554300000000000000000000000000000000000000000000000000000000008152508160039080519060200190620000c29291906200025d565b508060049080519060200190620000db9291906200025d565b505050620000fe620000f26200018f60201b60201c565b6200019760201b60201c565b6001600660003373ffffffffffffffffffffffffffffffffffffffff1673ffffffffffffffffffffffffffffffffffffffff16815260200190815260200160002060006101000a81548160ff0219169083151502179055506000600760006101000a81548160ff0219169083151502179055508160098190555080600a81905550600a6008819055505050620003f8565b600033905090565b6000600560009054906101000a900473ffffffffffffffffffffffffffffffffffffffff16905081600560006101000a81548173ffffffffffffffffffffffffffffffffffffffff021916908373ffffffffffffffffffffffffffffffffffffffff1602179055508173ffffffffffffffffffffffffffffffffffffffff168173ffffffffffffffffffffffffffffffffffffffff167f8be0079c531659141344cd1fd0a4f28419497f9722a3daafe3b4186f6b6457e060405160405180910390a35050565b8280546200026b90620003c3565b90600052602060002090601f0160209004810192826200028f5760008555620002db565b82601f10620002aa57805160ff1916838001178555620002db565b82800160010185558215620002db579182015b82811115620002da578251825591602001919060010190620002bd565b5b509050620002ea9190620002ee565b5090565b5b8082111562000309576000816000905550600101620002ef565b5090565b600080fd5b6000819050919050565b620003278162000312565b81146200033357600080fd5b50565b60008151905062000347816200031c565b92915050565b600080604083850312156200036757620003666200030d565b5b6000620003778582860162000336565b92505060206200038a8582860162000336565b9150509250929050565b7f4e487b7100000000000000000000000000000000000000000000000000000000600052602260045260246000fd5b60006002820490506001821680620003dc57607f821691505b602082108103620003f257620003f162000394565b5b50919050565b6124ac80620004086000396000f3fe608060405234801561001057600080fd5b506004361061014d5760003560e01c806370a08231116100c3578063a9059cbb1161007c578063a9059cbb1461037a578063ced72f87146103aa578063d96a094a146103c8578063dd62ed3e146103e4578063ed88c68e14610414578063f2fde38b1461041e5761014d565b806370a08231146102b6578063715018a6146102e65780638da5cb5b146102f057806395d89b411461030e5780639ee68fd51461032c578063a457c2d71461034a5761014d565b806323b872dd1161011557806323b872dd146101e45780632538618314610214578063313ce56714610230578063395093511461024e5780635d4fead31461027e57806369fe0e2d1461029a5761014d565b806301b613a51461015257806306fdde031461015c578063095ea7b31461017a5780630b6c9082146101aa57806318160ddd146101c6575b600080fd5b61015a61043a565b005b6101646104cb565b6040516101719190611805565b60405180910390f35b610194600480360381019061018f91906118c0565b61055d565b6040516101a1919061191b565b60405180910390f35b6101c460048036038101906101bf9190611936565b610580565b005b6101ce6105db565b6040516101db9190611972565b60405180910390f35b6101fe60048036038101906101f9919061198d565b6105e5565b60405161020b919061191b565b60405180910390f35b61022e600480360381019061022991906119e0565b610614565b005b61023861069a565b6040516102459190611a29565b60405180910390f35b610268600480360381019061026391906118c0565b6106a3565b604051610275919061191b565b60405180910390f35b61029860048036038101906102939190611a70565b61074d565b005b6102b460048036038101906102af91906119e0565b6107e6565b005b6102d060048036038101906102cb9190611936565b6108bd565b6040516102dd9190611972565b60405180910390f35b6102ee610905565b005b6102f861098d565b6040516103059190611aac565b60405180910390f35b6103166109b7565b6040516103239190611805565b60405180910390f35b610334610a49565b6040516103419190611972565b60405180910390f35b610364600480360381019061035f91906118c0565b610a53565b604051610371919061191b565b60405180910390f35b610394600480360381019061038f91906118c0565b610b3d565b6040516103a1919061191b565b60405180910390f35b6103b2610c47565b6040516103bf9190611972565b60405180910390f35b6103e260048036038101906103dd91906119e0565b610c51565b005b6103fe60048036038101906103f99190611ac7565b610cbc565b60405161040b9190611972565b60405180910390f35b61041c610d43565b005b61043860048036038101906104339190611936565b610e02565b005b610442610ef9565b73ffffffffffffffffffffffffffffffffffffffff1661046061098d565b73ffffffffffffffffffffffffffffffffffffffff16146104b6576040517f08c379a00000000000000000000000000000000000000000000000000000000081526004016104ad90611b53565b60405180910390fd5b6104c930336104c4306108bd565b610f01565b565b6060600380546104da90611ba2565b80601f016020809104026020016040519081016040528092919081815260200182805461050690611ba2565b80156105535780601f1061052857610100808354040283529160200191610553565b820191906000526020600020905b81548152906001019060200180831161053657829003601f168201915b5050505050905090565b600080610568610ef9565b9050610575818585611180565b600191505092915050565b6001600660008373ffffffffffffffffffffffffffffffffffffffff1673ffffffffffffffffffffffffffffffffffffffff16815260200190815260200160002060006101000a81548160ff02191690831515021790555050565b6000600254905090565b6000806105f0610ef9565b90506105fd858285611349565b610608858585610f01565b60019150509392505050565b61061c610ef9565b73ffffffffffffffffffffffffffffffffffffffff1661063a61098d565b73ffffffffffffffffffffffffffffffffffffffff1614610690576040517f08c379a000000000000000000000000000000000000000000000000000000000815260040161068790611b53565b60405180910390fd5b8060098190555050565b60006012905090565b6000806106ae610ef9565b9050610742818585600160008673ffffffffffffffffffffffffffffffffffffffff1673ffffffffffffffffffffffffffffffffffffffff16815260200190815260200160002060008973ffffffffffffffffffffffffffffffffffffffff1673ffffffffffffffffffffffffffffffffffffffff1681526020019081526020016000205461073d9190611c02565b611180565b600191505092915050565b610755610ef9565b73ffffffffffffffffffffffffffffffffffffffff1661077361098d565b73ffffffffffffffffffffffffffffffffffffffff16146107c9576040517f08c379a00000000000000000000000000000000000000000000000000000000081526004016107c090611b53565b60405180910390fd5b80600760006101000a81548160ff02191690831515021790555050565b6107ee610ef9565b73ffffffffffffffffffffffffffffffffffffffff1661080c61098d565b73ffffffffffffffffffffffffffffffffffffffff1614610862576040517f08c379a000000000000000000000000000000000000000000000000000000000815260040161085990611b53565b60405180910390fd5b60008110158015610874575060648111155b6108b3576040517f08c379a00000000000000000000000000000000000000000000000000000000081526004016108aa90611ca4565b60405180910390fd5b8060088190555050565b60008060008373ffffffffffffffffffffffffffffffffffffffff1673ffffffffffffffffffffffffffffffffffffffff168152602001908152602001600020549050919050565b61090d610ef9565b73ffffffffffffffffffffffffffffffffffffffff1661092b61098d565b73ffffffffffffffffffffffffffffffffffffffff1614610981576040517f08c379a000000000000000000000000000000000000000000000000000000000815260040161097890611b53565b60405180910390fd5b61098b60006113d5565b565b6000600560009054906101000a900473ffffffffffffffffffffffffffffffffffffffff16905090565b6060600480546109c690611ba2565b80601f01602080910402602001604051908101604052809291908181526020018280546109f290611ba2565b8015610a3f5780601f10610a1457610100808354040283529160200191610a3f565b820191906000526020600020905b815481529060010190602001808311610a2257829003601f168201915b5050505050905090565b6000600954905090565b600080610a5e610ef9565b90506000600160008373ffffffffffffffffffffffffffffffffffffffff1673ffffffffffffffffffffffffffffffffffffffff16815260200190815260200160002060008673ffffffffffffffffffffffffffffffffffffffff1673ffffffffffffffffffffffffffffffffffffffff16815260200190815260200160002054905083811015610b24576040517f08c379a0000000000000000000000000000000000000000000000000000000008152600401610b1b90611d36565b60405180910390fd5b610b318286868403611180565b60019250505092915050565b6000600760009054906101000a900460ff1615610b8f576040517f08c379a0000000000000000000000000000000000000000000000000000000008152600401610b8690611da2565b60405180910390fd5b610b983361149b565b610c32576000610bc66064610bb8856008546114f190919063ffffffff16565b61150790919063ffffffff16565b9050610bdb818461151d90919063ffffffff16565b610be4336108bd565b1015610c25576040517f08c379a0000000000000000000000000000000000000000000000000000000008152600401610c1c90611e34565b60405180910390fd5b610c30333083610f01565b505b610c3d338484610f01565b6001905092915050565b6000600854905090565b600954610c6e82610c606105db565b61151d90919063ffffffff16565b1115610caf576040517f08c379a0000000000000000000000000000000000000000000000000000000008152600401610ca690611ec6565b60405180910390fd5b610cb93382611533565b50565b6000600160008473ffffffffffffffffffffffffffffffffffffffff1673ffffffffffffffffffffffffffffffffffffffff16815260200190815260200160002060008373ffffffffffffffffffffffffffffffffffffffff1673ffffffffffffffffffffffffffffffffffffffff16815260200190815260200160002054905092915050565b610d4c33611692565b610d8b576040517f08c379a0000000000000000000000000000000000000000000000000000000008152600401610d8290611f58565b60405180910390fd5b600954610daa600a54610d9c6105db565b61151d90919063ffffffff16565b1115610deb576040517f08c379a0000000000000000000000000000000000000000000000000000000008152600401610de290611ec6565b60405180910390fd5b610df733600a54611533565b610e00336116f4565b565b610e0a610ef9565b73ffffffffffffffffffffffffffffffffffffffff16610e2861098d565b73ffffffffffffffffffffffffffffffffffffffff1614610e7e576040517f08c379a0000000000000000000000000000000000000000000000000000000008152600401610e7590611b53565b60405180910390fd5b600073ffffffffffffffffffffffffffffffffffffffff168173ffffffffffffffffffffffffffffffffffffffff1603610eed576040517f08c379a0000000000000000000000000000000000000000000000000000000008152600401610ee490611fea565b60405180910390fd5b610ef6816113d5565b50565b600033905090565b600073ffffffffffffffffffffffffffffffffffffffff168373ffffffffffffffffffffffffffffffffffffffff1603610f70576040517f08c379a0000000000000000000000000000000000000000000000000000000008152600401610f679061207c565b60405180910390fd5b600073ffffffffffffffffffffffffffffffffffffffff168273ffffffffffffffffffffffffffffffffffffffff1603610fdf576040517f08c379a0000000000000000000000000000000000000000000000000000000008152600401610fd69061210e565b60405180910390fd5b610fea838383611762565b60008060008573ffffffffffffffffffffffffffffffffffffffff1673ffffffffffffffffffffffffffffffffffffffff16815260200190815260200160002054905081811015611070576040517f08c379a0000000000000000000000000000000000000000000000000000000008152600401611067906121a0565b60405180910390fd5b8181036000808673ffffffffffffffffffffffffffffffffffffffff1673ffffffffffffffffffffffffffffffffffffffff16815260200190815260200160002081905550816000808573ffffffffffffffffffffffffffffffffffffffff1673ffffffffffffffffffffffffffffffffffffffff16815260200190815260200160002060008282546111039190611c02565b925050819055508273ffffffffffffffffffffffffffffffffffffffff168473ffffffffffffffffffffffffffffffffffffffff167fddf252ad1be2c89b69c2b068fc378daa952ba7f163c4a11628f55a4df523b3ef846040516111679190611972565b60405180910390a361117a848484611767565b50505050565b600073ffffffffffffffffffffffffffffffffffffffff168373ffffffffffffffffffffffffffffffffffffffff16036111ef576040517f08c379a00000000000000000000000000000000000000000000000000000000081526004016111e690612232565b60405180910390fd5b600073ffffffffffffffffffffffffffffffffffffffff168273ffffffffffffffffffffffffffffffffffffffff160361125e576040517f08c379a0000000000000000000000000000000000000000000000000000000008152600401611255906122c4565b60405180910390fd5b80600160008573ffffffffffffffffffffffffffffffffffffffff1673ffffffffffffffffffffffffffffffffffffffff16815260200190815260200160002060008473ffffffffffffffffffffffffffffffffffffffff1673ffffffffffffffffffffffffffffffffffffffff168152602001908152602001600020819055508173ffffffffffffffffffffffffffffffffffffffff168373ffffffffffffffffffffffffffffffffffffffff167f8c5be1e5ebec7d5bd14f71427d1e84f3dd0314c0f7b2291e5b200ac8c7c3b9258360405161133c9190611972565b60405180910390a3505050565b60006113558484610cbc565b90507fffffffffffffffffffffffffffffffffffffffffffffffffffffffffffffffff81146113cf57818110156113c1576040517f08c379a00000000000000000000000000000000000000000000000000000000081526004016113b890612330565b60405180910390fd5b6113ce8484848403611180565b5b50505050565b6000600560009054906101000a900473ffffffffffffffffffffffffffffffffffffffff16905081600560006101000a81548173ffffffffffffffffffffffffffffffffffffffff021916908373ffffffffffffffffffffffffffffffffffffffff1602179055508173ffffffffffffffffffffffffffffffffffffffff168173ffffffffffffffffffffffffffffffffffffffff167f8be0079c531659141344cd1fd0a4f28419497f9722a3daafe3b4186f6b6457e060405160405180910390a35050565b6000600660008373ffffffffffffffffffffffffffffffffffffffff1673ffffffffffffffffffffffffffffffffffffffff16815260200190815260200160002060009054906101000a900460ff169050919050565b600081836114ff9190612350565b905092915050565b6000818361151591906123d9565b905092915050565b6000818361152b9190611c02565b905092915050565b600073ffffffffffffffffffffffffffffffffffffffff168273ffffffffffffffffffffffffffffffffffffffff16036115a2576040517f08c379a000000000000000000000000000000000000000000000000000000000815260040161159990612456565b60405180910390fd5b6115ae60008383611762565b80600260008282546115c09190611c02565b92505081905550806000808473ffffffffffffffffffffffffffffffffffffffff1673ffffffffffffffffffffffffffffffffffffffff16815260200190815260200160002060008282546116159190611c02565b925050819055508173ffffffffffffffffffffffffffffffffffffffff16600073ffffffffffffffffffffffffffffffffffffffff167fddf252ad1be2c89b69c2b068fc378daa952ba7f163c4a11628f55a4df523b3ef8360405161167a9190611972565b60405180910390a361168e60008383611767565b5050565b600042600c60008473ffffffffffffffffffffffffffffffffffffffff1673ffffffffffffffffffffffffffffffffffffffff16815260200190815260200160002060009054906101000a900463ffffffff1663ffffffff1611159050919050565b600b54426117029190611c02565b600c60008373ffffffffffffffffffffffffffffffffffffffff1673ffffffffffffffffffffffffffffffffffffffff16815260200190815260200160002060006101000a81548163ffffffff021916908363ffffffff16021790555050565b505050565b505050565b600081519050919050565b600082825260208201905092915050565b60005b838110156117a657808201518184015260208101905061178b565b838111156117b5576000848401525b50505050565b6000601f19601f8301169050919050565b60006117d78261176c565b6117e18185611777565b93506117f1818560208601611788565b6117fa816117bb565b840191505092915050565b6000602082019050818103600083015261181f81846117cc565b905092915050565b600080fd5b600073ffffffffffffffffffffffffffffffffffffffff82169050919050565b60006118578261182c565b9050919050565b6118678161184c565b811461187257600080fd5b50565b6000813590506118848161185e565b92915050565b6000819050919050565b61189d8161188a565b81146118a857600080fd5b50565b6000813590506118ba81611894565b92915050565b600080604083850312156118d7576118d6611827565b5b60006118e585828601611875565b92505060206118f6858286016118ab565b9150509250929050565b60008115159050919050565b61191581611900565b82525050565b6000602082019050611930600083018461190c565b92915050565b60006020828403121561194c5761194b611827565b5b600061195a84828501611875565b91505092915050565b61196c8161188a565b82525050565b60006020820190506119876000830184611963565b92915050565b6000806000606084860312156119a6576119a5611827565b5b60006119b486828701611875565b93505060206119c586828701611875565b92505060406119d6868287016118ab565b9150509250925092565b6000602082840312156119f6576119f5611827565b5b6000611a04848285016118ab565b91505092915050565b600060ff82169050919050565b611a2381611a0d565b82525050565b6000602082019050611a3e6000830184611a1a565b92915050565b611a4d81611900565b8114611a5857600080fd5b50565b600081359050611a6a81611a44565b92915050565b600060208284031215611a8657611a85611827565b5b6000611a9484828501611a5b565b91505092915050565b611aa68161184c565b82525050565b6000602082019050611ac16000830184611a9d565b92915050565b60008060408385031215611ade57611add611827565b5b6000611aec85828601611875565b9250506020611afd85828601611875565b9150509250929050565b7f4f776e61626c653a2063616c6c6572206973206e6f7420746865206f776e6572600082015250565b6000611b3d602083611777565b9150611b4882611b07565b602082019050919050565b60006020820190508181036000830152611b6c81611b30565b9050919050565b7f4e487b7100000000000000000000000000000000000000000000000000000000600052602260045260246000fd5b60006002820490506001821680611bba57607f821691505b602082108103611bcd57611bcc611b73565b5b50919050565b7f4e487b7100000000000000000000000000000000000000000000000000000000600052601160045260246000fd5b6000611c0d8261188a565b9150611c188361188a565b9250827fffffffffffffffffffffffffffffffffffffffffffffffffffffffffffffffff03821115611c4d57611c4c611bd3565b5b828201905092915050565b7f54686520666565206d75737420626520612070657263656e746167652e000000600082015250565b6000611c8e601d83611777565b9150611c9982611c58565b602082019050919050565b60006020820190508181036000830152611cbd81611c81565b9050919050565b7f45524332303a2064656372656173656420616c6c6f77616e63652062656c6f7760008201527f207a65726f000000000000000000000000000000000000000000000000000000602082015250565b6000611d20602583611777565b9150611d2b82611cc4565b604082019050919050565b60006020820190508181036000830152611d4f81611d13565b9050919050565b7f546865207472616e73616374696f6e7320617265207061757365642e00000000600082015250565b6000611d8c601c83611777565b9150611d9782611d56565b602082019050919050565b60006020820190508181036000830152611dbb81611d7f565b9050919050565b7f596f7520646f6e2774206861766520656e6f75676874206d6f6e657920746f2060008201527f70617920746865206665652e0000000000000000000000000000000000000000602082015250565b6000611e1e602c83611777565b9150611e2982611dc2565b604082019050919050565b60006020820190508181036000830152611e4d81611e11565b9050919050565b7f436f6e7472616374207265616368656420697473206d6178696d756d2073757060008201527f706c792c2063616e6e6f74206d696e74206d6f726520636f696e732e00000000602082015250565b6000611eb0603c83611777565b9150611ebb82611e54565b604082019050919050565b60006020820190508181036000830152611edf81611ea3565b9050919050565b7f54686520636f6f6c646f776e206265747765656e20646f6e6174696f6e73206960008201527f7320333020646179732e00000000000000000000000000000000000000000000602082015250565b6000611f42602a83611777565b9150611f4d82611ee6565b604082019050919050565b60006020820190508181036000830152611f7181611f35565b9050919050565b7f4f776e61626c653a206e6577206f776e657220697320746865207a65726f206160008201527f6464726573730000000000000000000000000000000000000000000000000000602082015250565b6000611fd4602683611777565b9150611fdf82611f78565b604082019050919050565b6000602082019050818103600083015261200381611fc7565b9050919050565b7f45524332303a207472616e736665722066726f6d20746865207a65726f20616460008201527f6472657373000000000000000000000000000000000000000000000000000000602082015250565b6000612066602583611777565b91506120718261200a565b604082019050919050565b6000602082019050818103600083015261209581612059565b9050919050565b7f45524332303a207472616e7366657220746f20746865207a65726f206164647260008201527f6573730000000000000000000000000000000000000000000000000000000000602082015250565b60006120f8602383611777565b91506121038261209c565b604082019050919050565b60006020820190508181036000830152612127816120eb565b9050919050565b7f45524332303a207472616e7366657220616d6f756e742065786365656473206260008201527f616c616e63650000000000000000000000000000000000000000000000000000602082015250565b600061218a602683611777565b91506121958261212e565b604082019050919050565b600060208201905081810360008301526121b98161217d565b9050919050565b7f45524332303a20617070726f76652066726f6d20746865207a65726f2061646460008201527f7265737300000000000000000000000000000000000000000000000000000000602082015250565b600061221c602483611777565b9150612227826121c0565b604082019050919050565b6000602082019050818103600083015261224b8161220f565b9050919050565b7f45524332303a20617070726f766520746f20746865207a65726f20616464726560008201527f7373000000000000000000000000000000000000000000000000000000000000602082015250565b60006122ae602283611777565b91506122b982612252565b604082019050919050565b600060208201905081810360008301526122dd816122a1565b9050919050565b7f45524332303a20696e73756666696369656e7420616c6c6f77616e6365000000600082015250565b600061231a601d83611777565b9150612325826122e4565b602082019050919050565b600060208201905081810360008301526123498161230d565b9050919050565b600061235b8261188a565b91506123668361188a565b9250817fffffffffffffffffffffffffffffffffffffffffffffffffffffffffffffffff048311821515161561239f5761239e611bd3565b5b828202905092915050565b7f4e487b7100000000000000000000000000000000000000000000000000000000600052601260045260246000fd5b60006123e48261188a565b91506123ef8361188a565b9250826123ff576123fe6123aa565b5b828204905092915050565b7f45524332303a206d696e7420746f20746865207a65726f206164647265737300600082015250565b6000612440601f83611777565b915061244b8261240a565b602082019050919050565b6000602082019050818103600083015261246f81612433565b905091905056fea264697066735822122055185dba68b589dd1d4dbccefc33dbe2a2a6ec844c9438b7bc2f4fb37866bf7464736f6c634300080d0033",
  "immutableReferences": {},
  "source": "// SPDX-License-Identifier: MIT\r\npragma solidity ^0.8.13;\r\n\r\nimport \"@openzeppelin/contracts/token/ERC20/ERC20.sol\";\r\nimport \"@openzeppelin/contracts/utils/math/SafeMath.sol\";\r\nimport \"./Vip.sol\";\r\nimport \"./Pausable.sol\";\r\n\r\ncontract Ducats is ERC20, Vip, Pausable {\r\n    uint256 private _fee;\r\n    uint256 private _maximumSupply;\r\n    uint256 private _donationAmount;\r\n    uint256 private _cooldownTime = 30 days;\r\n    mapping (address => uint32) cooldown;\r\n\r\n    using SafeMath for uint256;\r\n\r\n    constructor(uint256 maximumSupply, uint256 donationAmount) ERC20(\"Ducats\", \"DUC\") {\r\n        _maximumSupply = maximumSupply;\r\n        _donationAmount = donationAmount;\r\n        _fee = 10;\r\n    }\r\n\r\n    function buy(uint256 amount) public {\r\n        require(\r\n            totalSupply().add(amount) <= _maximumSupply,\r\n            \"Contract reached its maximum supply, cannot mint more coins.\"\r\n        );\r\n        _mint(msg.sender, amount);\r\n    }\r\n\r\n    function _isReady(address account) internal view returns (bool) {\r\n        return cooldown[account] <= block.timestamp;\r\n    }\r\n\r\n    function _triggerCooldown(address account) internal {\r\n        cooldown[account] = uint32(block.timestamp + _cooldownTime);\r\n    }\r\n\r\n    function donate() public {\r\n        require(_isReady(msg.sender), \"The cooldown between donations is 30 days.\");\r\n        require(\r\n            totalSupply().add(_donationAmount) <= _maximumSupply,\r\n            \"Contract reached its maximum supply, cannot mint more coins.\"\r\n        );\r\n        _mint(msg.sender, _donationAmount);\r\n        _triggerCooldown(msg.sender);\r\n    }\r\n\r\n    function transfer(address to, uint256 amount)\r\n        public\r\n        virtual\r\n        override\r\n        isPaused\r\n        returns (bool)\r\n    {\r\n        if (!_isVip(msg.sender)) {\r\n            uint256 tax = _fee.mul(amount).div(100);\r\n\r\n            require(\r\n                balanceOf(msg.sender) >= amount.add(tax),\r\n                \"You don't have enought money to pay the fee.\"\r\n            );\r\n\r\n            _transfer(msg.sender, address(this), tax);\r\n        }\r\n\r\n        _transfer(msg.sender, to, amount);\r\n\r\n        return true;\r\n    }\r\n\r\n    function collectTaxes() public onlyOwner {\r\n        _transfer(address(this), msg.sender, balanceOf(address(this)));\r\n    }\r\n\r\n    function setFee(uint256 amount) public onlyOwner {\r\n        require(amount >= 0 && amount <= 100, \"The fee must be a percentage.\");\r\n        _fee = amount;\r\n    }\r\n\r\n    function getFee() public view returns(uint256) {\r\n        return _fee;\r\n    }\r\n\r\n    function setMaximum(uint256 amount) public onlyOwner {\r\n        _maximumSupply = amount;\r\n    }\r\n\r\n    function getMaximum() public view returns(uint256) {\r\n        return _maximumSupply;\r\n    }\r\n}\r\n",
  "sourcePath": "C:\\Users\\DaviB\\OneDrive\\Desktop\\ducats\\contracts\\Ducats.sol",
  "compiler": {
    "name": "solc",
    "version": "0.8.13+commit.abaa5c0e.Emscripten.clang"
  },
  "schemaVersion": "3.4.7",
  "updatedAt": "2022-04-27T17:37:16.140Z",
  "devdoc": {
    "kind": "dev",
    "methods": {
      "allowance(address,address)": {
        "details": "See {IERC20-allowance}."
      },
      "approve(address,uint256)": {
        "details": "See {IERC20-approve}. NOTE: If `amount` is the maximum `uint256`, the allowance is not updated on `transferFrom`. This is semantically equivalent to an infinite approval. Requirements: - `spender` cannot be the zero address."
      },
      "balanceOf(address)": {
        "details": "See {IERC20-balanceOf}."
      },
      "decimals()": {
        "details": "Returns the number of decimals used to get its user representation. For example, if `decimals` equals `2`, a balance of `505` tokens should be displayed to a user as `5.05` (`505 / 10 ** 2`). Tokens usually opt for a value of 18, imitating the relationship between Ether and Wei. This is the value {ERC20} uses, unless this function is overridden; NOTE: This information is only used for _display_ purposes: it in no way affects any of the arithmetic of the contract, including {IERC20-balanceOf} and {IERC20-transfer}."
      },
      "decreaseAllowance(address,uint256)": {
        "details": "Atomically decreases the allowance granted to `spender` by the caller. This is an alternative to {approve} that can be used as a mitigation for problems described in {IERC20-approve}. Emits an {Approval} event indicating the updated allowance. Requirements: - `spender` cannot be the zero address. - `spender` must have allowance for the caller of at least `subtractedValue`."
      },
      "increaseAllowance(address,uint256)": {
        "details": "Atomically increases the allowance granted to `spender` by the caller. This is an alternative to {approve} that can be used as a mitigation for problems described in {IERC20-approve}. Emits an {Approval} event indicating the updated allowance. Requirements: - `spender` cannot be the zero address."
      },
      "name()": {
        "details": "Returns the name of the token."
      },
      "owner()": {
        "details": "Returns the address of the current owner."
      },
      "renounceOwnership()": {
        "details": "Leaves the contract without owner. It will not be possible to call `onlyOwner` functions anymore. Can only be called by the current owner. NOTE: Renouncing ownership will leave the contract without an owner, thereby removing any functionality that is only available to the owner."
      },
      "symbol()": {
        "details": "Returns the symbol of the token, usually a shorter version of the name."
      },
      "totalSupply()": {
        "details": "See {IERC20-totalSupply}."
      },
      "transfer(address,uint256)": {
        "details": "See {IERC20-transfer}. Requirements: - `to` cannot be the zero address. - the caller must have a balance of at least `amount`."
      },
      "transferFrom(address,address,uint256)": {
        "details": "See {IERC20-transferFrom}. Emits an {Approval} event indicating the updated allowance. This is not required by the EIP. See the note at the beginning of {ERC20}. NOTE: Does not update the allowance if the current allowance is the maximum `uint256`. Requirements: - `from` and `to` cannot be the zero address. - `from` must have a balance of at least `amount`. - the caller must have allowance for ``from``'s tokens of at least `amount`."
      },
      "transferOwnership(address)": {
        "details": "Transfers ownership of the contract to a new account (`newOwner`). Can only be called by the current owner."
      }
    },
    "version": 1
  },
  "userdoc": {
    "kind": "user",
    "methods": {},
    "version": 1
  }
}